S017000046696E616C42656568697665312E322E73726563DA
S11300000C94A7000C94C4000C94C4000C94C40079
S11300100C94C4000C94C4000C94C4000C94C4004C
S11300200C94C4000C94C4000C94C4000C94C4003C
S11300300C94C4000C94C4000C94C4000C94C4002C
S11300400C94C4000C94C4000C94C4000C94C4001C
S11300500C94C40000407A10F35A00A0724E1809A0
S11300600010A5D4E80000E87648170000E40B541B
S1130070020000CA9A3B000000E1F50500008096EA
S11300809800000040420F000000A086010000001C
S1130090102700000000E8030000000064000000D6
S11300A000000A00000000000100000000002C769F
S11300B0D888DC674F0823DFC1DFAE59E1B1B796BA
S11300C0E5E3E453C63AE651997696E8E6C2842617
S11300D0EB898C9B62ED407C6FFCEFBC9C9F40F2F3
S11300E0BAA56FA5F490055A2AF75C936B6CF9676F
S11300F06DC11BFCE0E40D47FEF520E6B500D0ED34
S1130100902E0300943577050080841E080000209B
S11301104E0A000000C80C333333330F986E128339
S11301201141EF8D2114893BE65516CFFEE6DB180D
S1130130D1844B381BF77C1D901DA4BBE4242032D2
S113014084725E228100C9F124ECA1E53D271124CB
S11301501FBECFE5D8E0DEBFCDBF10E0A0E6B0E023
S1130160E2E4F0E102C005900D92A038B107D9F79E
S113017020E0A0E8B0E001C01D92AA38B207E1F780
S11301800E94A9020C941F080C940000B099FECFA1
S113019028E180E090E0DC01C19A0000880F991FFB
S11301A0AA1FBB1FC1980000B09B03C00196A11DEC
S11301B0B11D215089F7689415F8B695A7959795C0
S11301C087951694D1F7BC01CD0180582091890000
S11301D0222349F020E0C19A0000C1982F5F30919A
S11301E089002317C0F30895CF92DF92EF92FF9214
S11301F00E94C6000E9477046B017C01609181001B
S11302007091820080918300909184000E9479040F
S11302109B01AC01C701B6010E949303FF90EF90CC
S1130220DF90CF9008950E94F400209185003091D2
S1130230860040918700509188000E94050408952B
S11302408038910521F481E08093890010C08034C6
S1130250910521F483E08093890009C0809721F4FB
S113026082E08093890003C081E080938900C19873
S11302700E94C6000895CF92DF92EF92FF926B0125
S11302807C0120E030E040E85FE30E940004882322
S113029044F40F2EC12CD12CF0E8EF2EFFE3FF2EF7
S11302A0F02DC0928500D0928600E0928700F092F3
S11302B08800FF90EF90DF90CF9008958F929F92E7
S11302C0AF92BF92CF92DF92EF92FF920F931F9360
S11302D04A015B0168017901B99AC198B89890E024
S11302E00E942001C501B4010E943B01C09281001B
S11302F0D0928200E0928300F09284001F910F91CB
S1130300FF90EF90DF90CF90BF90AF909F908F9031
S1130310089594EA96BF06B607FEFDCF91B1987F83
S1130320983011F0903179F483B984E886BF06B629
S113033007FEFDCF91B1987F983139F081E0903478
S113034029F480E0089581E0089580E0089584E927
S113035086BF06B604FCFDCF089583B984E886BF42
S113036006B607FEFDCF91B1987F81E0983209F47B
S113037080E00895CF93DF93C82F8EE40E94890113
S1130380DC2FD07F8091800084608D2B0E94AD0192
S11303908FEC97E00197F1F700C000008091800096
S11303A08D2B0E94AD018FEC97E00197F1F700C00F
S11303B0000090E1C99FE0011124809180008460D5
S11303C08C2B0E94AD018FEC97E00197F1F700C0F0
S11303D00000809180008C2B0E94AD018FEC97E08F
S11303E00197F1F700C000000E94A701DF91CF91AF
S11303F00895CF93C82F8EE40E948901C07F809115
S1130400800084608C2B0E94AD018FEC97E00197F3
S1130410F1F700C00000809180008C2B0E94AD0198
S11304208FEC97E00197F1F700C000000E94A7014C
S1130430CF9108958093800080E30E94F90180E3C6
S11304400E94F90180E30E94F90180E20E94F9010F
S11304508FE39CE90197F1F700C0000088E20E9455
S1130460BA018CE00E94BA0186E00E94BA0181E0E0
S11304700E94BA010895CF93DF93C82F8EE40E949F
S11304808901DC2FD07F80918000D82B8D2F85604F
S11304900E94AD01DA7F809180008D2B0E94AD0116
S11304A080E1C89F90011124C0918000C560C22BD7
S11304B08C2F0E94AD012C2F2A7F80918000822BEB
S11304C00E94AD010E94A701DF91CF91089562308F
S11304D031F0633031F0613029F4805C03C08C5E0C
S11304E001C08C5A80680E94BA01089581E00E947C
S11304F0BA0108951F93CF93DF930097B1F0EC01F5
S113050010E007C0FE01E20FF31F80810E943B024E
S11305101F5F212F30E0FE0101900020E9F73197A1
S1130520EC1BFD0B2E173F0768F3DF91CF911F9152
S1130530089580E487B987E886B9089597B1987FCC
S11305408770892B87B9369A3699FECF84B195B1D5
S11305500895CF93DF93CDB7DEB7C85CD1090FB64A
S1130560F894DEBF0FBECDBFA79A0E9499022FE771
S113057088E391E0215080409040E1F700C0000002
S11305808D9A1DBC1CBC83EC99E097BD86BD82E8A6
S11305908FBD8BE18EBD789400916400109165004D
S11305A02091660030916700409160005091610095
S11305B06091620070916300809168000E945E0106
S11305C00F2EFCE2CF2EDD24D394F02D0F2EFFEA64
S11305D0EF2EF12CF02DAF9A2FEF89E698E1215000
S11305E080409040E1F700C00000AF982FEF87EA09
S11305F091E6215080409040E1F700C0000080E087
S11306000E949E02843F21E0920718F4FBBCEABCDE
S113061005C0853F914010F0DBBCCABC88E00E9455
S11306201A020E94760260E080E00E9467020E9443
S1130630130120E030E048E452E40E949303905810
S11306402DEC3CEC4CEA5FE30E9493034B015C010C
S11306508E010F5F1F4F23E043E00E94960589E659
S113066090E00E947A02C8010E947A02C8010E94A6
S11306707E0382E790E00E947A0261E080E00E94BB
S1130680670220E030E048E451E4C501B4010E946F
S113069029050C591F4F22E042E00E94960585E788
S11306A090E00E947A02C8010E947A028EE790E0EC
S11306B00E947A028FEF94E32CE081509040204016
S11306C0E1F700C0000087CF5D9BFECF8CB9089591
S11306D00F931F93CF93FC018081882359F08F01DE
S11306E0C0E00E946403CF5FF801EC0FF11D80812C
S11306F08111F7CFCF911F910F9108952FE738E320
S113070041E0215030404040E1F700C000000E9429
S113071068038FEF9BE42DE1815090402040E1F786
S113072000C0000008955058BB27AA270E94AB03BD
S11307300C94EF040E94E10438F00E94E80420F0D5
S113074039F49F3F19F426F40C94DE040EF4E0957A
S1130750E7FB0C94D804E92F0E94000558F3BA175C
S1130760620773078407950720F079F4A6F50C94C3
S113077022050EF4E0950B2EBA2FA02D0B01B90122
S113078090010C01CA01A0011124FF27591B99F003
S1130790593F50F4503E68F11A16F040A22F232F0F
S11307A0342F4427585FF3CF469537952795A7955F
S11307B0F0405395C9F77EF41F16BA0B620B730B06
S11307C0840BBAF09150A1F0FF0FBB1F661F771F77
S11307D0881FC2F70EC0BA0F621F731F841F48F42C
S11307E0879577956795B795F7959E3F08F0B0CFB5
S11307F09395880F08F09927EE0F9795879508959C
S11308000E94B40408F481E008950E9419040C9431
S1130810EF040E94E80458F00E94E10440F029F437
S11308205F3F29F00C94D80451110C9423050C94C7
S1130830DE040E94000568F39923B1F3552391F374
S1130840951B550BBB27AA2762177307840738F03B
S11308509F5F5F4F220F331F441FAA1FA9F335D098
S11308600E2E3AF0E0E832D091505040E695001C4C
S1130870CAF72BD0FE2F29D0660F771F881FBB1F06
S1130880261737074807AB07B0E809F0BB0B802DE4
S1130890BF01FF2793585F4F3AF09E3F510578F010
S11308A00C94D8040C9423055F3FE4F3983ED4F3EE
S11308B0869577956795B795F7959F5FC9F7880FE4
S11308C0911D9695879597F90895E1E0660F771F36
S11308D0881FBB1F621773078407BA0720F0621BC7
S11308E0730B840BBA0BEE1F88F7E0950895E89418
S11308F009C097FB3EF490958095709561957F4F64
S11309008F4F9F4F9923A9F0F92F96E9BB27939511
S1130910F695879577956795B795F111F8CFFAF421
S1130920BB0F11F460FF1BC06F5F7F4F8F4F9F4F52
S113093016C0882311F096E911C0772321F09EE8B0
S1130940872F762F05C0662371F096E8862F70E016
S113095060E02AF09A95660F771F881FDAF7880FF0
S11309609695879597F90895990F0008550FAA0B46
S1130970E0E8FEEF16161706E807F907C0F01216AE
S11309801306E407F50798F0621B730B840B950BB1
S113099039F40A2661F0232B242B252B21F4089506
S11309A00A2609F4A140A6958FEF811D811D0895A3
S11309B097F99F6780E870E060E008959FEF80EC0E
S11309C0089500240A9416161706180609060895B1
S11309D000240A9412161306140605060895092E17
S11309E00394000C11F4882352F0BB0F40F4BF2B86
S11309F011F460FF04C06F5F7F4F8F4F9F4F0895C6
S1130A0057FD9058440F551F59F05F3F71F04795BB
S1130A10880F97FB991F61F09F3F79F087950895A0
S1130A20121613061406551FF2CF4695F1DF08C0BF
S1130A30161617061806991FF1CF869571056105DC
S1130A4008940895E894BB2766277727CB0197F984
S1130A5008950E943C050C94EF040E94E10438F0D0
S1130A600E94E80420F0952311F00C94D8040C940F
S1130A70DE0411240C9423050E94000570F3959F55
S1130A80C1F3950F50E0551F629FF001729FBB2781
S1130A90F00DB11D639FAA27F00DB11DAA1F649F1D
S1130AA06627B00DA11D661F829F2227B00DA11DD0
S1130AB0621F739FB00DA11D621F839FA00D611D56
S1130AC0221F749F3327A00D611D231F849F600D77
S1130AD0211D822F762F6A2F11249F5750409AF0A0
S1130AE0F1F088234AF0EE0FFF1FBB1F661F771F2C
S1130AF0881F91505040A9F79E3F510580F00C94F7
S1130B00D8040C9423055F3FE4F3983ED4F3869510
S1130B1077956795B795F795E7959F5FC1F7FE2B96
S1130B20880F911D9695879597F90895EF920F93E5
S1130B301F93CF93DF93E80147FD02C034E001C067
S1130B4034E1042E000C550B57FF03C05195419519
S1130B505109E32E022F242FAE010E94B605CE01C7
S1130B60DF91CF911F910F91EF900895A9E0B0E02C
S1130B70ECEBF5E00C94EE076A01122FB02E2BE398
S1130B80201720F0FF24F394F00E02C02CE3F22E81
S1130B900F2D27E0AE014F5F5F4F0E941007BC018D
S1130BA04981842F8970813031F0E1FC06C0E0FE78
S1130BB006C090E205C09DE203C09BE201C090E044
S1130BC05E2D507143FF3CC0911102C083E001C00F
S1130BD084E0811718F4212F281B01C020E0511153
S1130BE00BC0F601822F30E2882319F03193815033
S1130BF0FBCFC20ED11C20E0992329F0D6019C938F
S1130C00F60131966F01C6010396E2FE0AC03EE486
S1130C10D6013C9341E411964C93119712963C9360
S1130C2006C03EE6F601308341E641833283FC018F
S1130C30322F40E2332309F442C041933150FACFBA
S1130C4042FF44C0911102C083E001C084E08117D7
S1130C5018F4212F281B01C020E051110BC0F6010C
S1130C60822F30E2882319F031938150FBCFC20EDA
S1130C70D11C20E0992329F0D6019C93F6013196EA
S1130C806F01C6010396E2FE0BC039E4D6013C9322
S1130C903EE411963C93119736E412963C9307C0B8
S1130CA039E6F60130833EE6318336E63283FC01D1
S1130CB0322F40E2332319F041933150FBCFFC0132
S1130CC0E20FF11D10828EEF9FEFA6C021E030E00D
S1130CD0911102C020E030E0161617061CF4FB0147
S1130CE0319602C0E1E0F0E02E0F3F1FBB2021F05F
S1130CF0EB2DF0E0319602C0E0E0F0E02E0F3F1F54
S1130D00E12FF0E02E173F071CF4121B212F01C026
S1130D1020E08E2D887159F4F601822F30E2882369
S1130D2019F031938150FBCFC20ED11C20E09923DE
S1130D3029F0D6019C93F60131966F0151110BC035
S1130D40F601822F90E3882319F091938150FBCF11
S1130D50C20ED11C20E00F2D060F9A81342F307162
S1130D6044FF03C0913309F40150101624F40930F0
S1130D7018F008E001C001E0AB0177FF02C040E0D9
S1130D8050E0FB01E41BF50BA1E0B0E0AC0FBD1F8C
S1130D90EA0FFB1F8EE2A82E4B01801A91080B2D3F
S1130DA010E01195019511094F3FBFEF5B0721F446
S1130DB0D601AC9211966D01641775072CF0841658
S1130DC0950614F4818101C080E3415051093196A4
S1130DD0D60111967D014017510724F0D6018C935A
S1130DE06701E2CF6417750739F4963320F495331D
S1130DF019F4311101C081E3F6018083F701822FD8
S1130E0090E2882319F091938150FBCFF701E20F10
S1130E10F11D108280E090E02996ECE00C940A0821
S1130E20283008F027E03327DA01990F311D87FDB8
S1130E30916000966105710539F432602E5F3D932F
S1130E4030E32A95E1F708959F3F30F0803871052B
S1130E50610509F03C5F3C5F3D93913008F0806888
S1130E60911DDF93CF931F930F93FF92EF92192F4E
S1130E70987F9695E92F96959695E90FFF27E25569
S1130E80FF4F99273327EE24FF24A701E70105909C
S1130E900894079428F4360FE71EF81E491F511DC5
S1130EA0660F771F881F991F0694A1F70590079472
S1130EB028F4E70EF81E491F561FC11D770F881F1F
S1130EC0991F661F0694A1F70590079428F4F80E5D
S1130ED0491F561FC71FD11D880F991F661F771FF3
S1130EE00694A1F70590079420F4490F561FC71FD5
S1130EF0D81F990F661F771F881F0694A9F784913E
S1130F001095177041F0D695C79557954795F79466
S1130F10E7941A95C1F7E4E5F0E06894159015910B
S1130F2035916591959105907FE27395E118F10AE9
S1130F30430B560BC90BD009C0F7E10CF11E431F3C
S1130F40561FC91FD01D7EF4703311F48A95E6CF65
S1130F50E894015030F0080F0AF40027021708F44F
S1130F60202F2395022F7A3328F079E37D932A9555
S1130F70E9F710C07D932A9589F6069497956795AD
S1130F80379517951794E118F10A430B560BC90BC3
S1130F90D00998F023957E9173957A3308F070E325
S1130FA07C932013B8F77E9170617D9330F0839524
S1130FB071E37D9370E32A95E1F71124EF90FF909C
S1130FC00F911F91CF91DF91992787FD90950895F7
S1130FD02F923F924F925F926F927F928F929F9245
S1130FE0AF92BF92CF92DF92EF92FF920F931F9333
S1130FF0CF93DF93CDB7DEB7CA1BDB0B0FB6F894E4
S1131000DEBF0FBECDBF09942A88398848885F8423
S11310106E847D848C849B84AA84B984C884DF8094
S1131020EE80FD800C811B81AA81B981CE0FD11D78
S11310300FB6F894DEBF0FBECDBFED010895F8944E
S1051040FFCFDC
S113104200A8A145E3068000805765696768743A81
S113105220006B6700486172766573743A0025005C
S9030000FC
