S0140000693263616E642044485431312E737265637D
S11300000C942A000C9447000C9447000C9447006D
S11300100C9447000C9447000C9447000C94470040
S11300200C9447000C9460010C9447000C94470016
S11300300C9447000C9447000C9447000C94470020
S11300400C9447000C9447000C9447000C94470010
S11300500C94470011241FBECFE5D8E0DEBFCDBF0E
S113006010E0A0E6B0E0ECE8F9E002C005900D92E3
S1130070A238B107D9F710E0A2E8B0E001C01D92A0
S1130080AB38B107E1F70E94C0010C94C4040C948E
S11300900000982F84EA86BFE6E5F0E0808188239B
S11300A0ECF781B1887F883021F0803111F081E054
S11300B0089593B984E886BFE6E5F0E0808188235B
S11300C0ECF781B1982F987F983111F480E008956E
S11300D080E0903409F081E0089584E986BFE6E584
S11300E0F0E0808184FDFDCF089583B984E886BF64
S11300F0E6E5F0E080818823ECF781B190E0887F29
S1130100883209F091E0892F08950F931F93082FE7
S11301108EE40E944900102F107F80918200182BDA
S11301201560812F0E9475001A7F80918200812BB7
S11301300E9475000295007F109182001560102BBB
S1130140812F0E9475001A7F80918200812B0E946A
S113015075000E946D001F910F9108951F93CF9316
S1130160DF93EC010097B9F010E007C0FE01E80F3F
S1130170F91F80810E9485001F5F812F90E0AC2FC2
S1130180BD2FFD0101900020E9F73197EA1BFB0B1D
S11301908E179F0758F3DF91CF911F910895FF9217
S11301A00F931F93F82E8EE40E94490080EFF822EB
S11301B08091820084608F290E94750000ED17E011
S11301C0C8010197F1F7809182008F290E94750080
S11301D0C8010197F1F70E946D001F910F91FF90E4
S11301E00895EF92FF920F931F93E82E8EE40E94DE
S11301F049000F2EF0EFFF2EF02DFE20809182009B
S113020084608F290E94750000ED17E0C8010197F2
S1130210F1F7809182008F290E947500C80101972F
S1130220F1F7FE2CFF0CFF0CFF0CFF0C80918200F9
S113023084608F290E947500C8010197F1F78091AD
S113024082008F290E947500C8010197F1F70E946E
S11302506D001F910F91FF90EF90089581E00E942F
S1130260F1000895623031F0633031F0613029F4E7
S1130270805C03C08C5E01C08C5A80680E94F100CF
S113028008958093820080E30E94CF0080E30E945F
S1130290CF0080E30E94CF0080E20E94CF0080E480
S11302A09CE90197F1F788E20E94F1008CE00E943A
S11302B0F10086E00E94F10081E00E94F1000895BF
S11302C01F920F920FB60F9211248F939F938091D8
S11302D0830090918400019690938400809383001E
S11302E09F918F910F900FBE0F901F901895E1E38F
S11302F0F0E0808180628083E2E3F0E080818F7DA2
S1130300808380E49CE90197F1F780818062808397
S11303100895E1E3F0E080818F7D8083E0E3F0E005
S1130320808185FDFDCFE0E3F0E0808185FFFDCF96
S1130330E0E3F0E0808185FDFDCF08959091850094
S113034020E030E0E0E3F0E040E5808185FFFDCF90
S1130350842F8A95F1F7808185FF05C0892F880F46
S1130360982F916001C0990F808185FDFDCF2F5F8B
S11303703F4F2830310549F790938500892F089520
S11303802F923F924F925F926F927F928F929F92A1
S1130390AF92BF92CF92DF92EF92FF920F931F938F
S11303A0DF93CF93CDB7DEB727970FB6F894DEBFB0
S11303B00FBECDBF88E00E9441010E942E0180E063
S11303C060E00E94320181E08ABB8FEF82BB7894A7
S11303D084E089BF1FBC0F2EFBE3AF2EBB24F02D9E
S11303E00F2EFCE42F2E3324F02D41E44E830F2EE8
S11303F0F8E5EF2EFF24F02D50E25F830F2EF8E393
S11304008F2E9924F02D0F2EF0E16F2EF7E27F2E20
S1130410F02D08EC10E06E010894C11CD11C0F2EC5
S1130420F2E34F2E5524F02DF50180818160808305
S11304308AE18A95F1F780818E7F8083F1011182B0
S113044010824E81EEE4F0E040834F81F701408357
S113045054E05083F701808185FFFCCFF1011182C4
S1130460108241E0EEE4F0E040834F81F7014083E5
S113047054E050831092840010928300F70180812D
S113048085FFFCCFE6E4F0E06081718180E090E0DC
S11304900E94CF0329E23CE349EE53E40E94650342
S11304A020E030E040EA51E40E94610318167CF039
S11304B044E0E7E3F0E04083F40140839301C801A2
S11304C00197F1F721503040D1F7F401108280E612
S11304D090E00E94AE0080E061E00E9432018CE670
S11304E090E00E94AE000E9477010E9489010E9460
S11304F09E01809389000E949E01809386000E9441
S11305009E01809388000E949E0180938A000E942D
S11305109E018093870020918900622F70E02091D2
S11305208600AB01420F511D9A0140918800240FAF
S1130530311D40918A00240F311D90E0281739079E
S113054049F080E060E00E94320184E790E00E947C
S1130550AE0048C0CB01B6014AE050E00E947F04DF
S11305608BE060E00E943201C6010E94AE00C60129
S11305700E9448038AE790E00E94AE0080918600C2
S113058090E0B6014AE050E00E947F04C6010E9458
S1130590AE008CE790E00E94AE008091880090E06D
S11305A0B6014AE050E00E947F0487E061E00E94C7
S11305B03201C6010E94AE00C6010E9448038AE7C8
S11305C090E00E94AE0080918A0090E0B6014AE07B
S11305D050E00E947F04C6010E94AE008EE790E0C6
S11305E00E94AE009301C8010197F1F721503040F9
S11305F0D1F70E942E019301C8010197F1F7215010
S11306003040D1F790918800913248F442E0E7E31A
S1130610F0E04083F40180818260808308C042E07E
S1130620E7E3F0E04083F40180818D7F80839E3195
S113063048F041E0E1E3F0E04083F2018081816031
S11306408083F2CE41E0E1E3F0E04083F201808177
S11306508E7F8083E9CE982FEBE2F0E0808185FFE6
S1130660FDCF9CB908951F93CF93DF93EC0188814C
S1130670882351F010E00E942B031F5FFE01E10F5D
S1130680F11D80818823B9F7DF91CF911F910895DF
S1130690BC0124EF31E048EC50E0CA010197F1F7C6
S11306A021503040D1F7CB010E94330320EE3EE2CB
S11306B048EC50E0CA010197F1F721503040D1F7DE
S11306C00895A8D008F481E008950CD0DEC0D6D0F7
S11306D040F0CDD030F021F45F3F19F0BFC051118C
S11306E008C1C2C0E3D098F39923C9F35523B1F3E9
S11306F0951B550BBB27AA2762177307840738F08D
S11307009F5F5F4F220F331F441FAA1FA9F333D0EB
S11307100E2E3AF0E0E830D091505040E695001C9F
S1130720CAF729D0FE2F27D0660F771F881FBB1F5B
S1130730261737074807AB07B0E809F0BB0B802D35
S1130740BF01FF2793585F4F2AF09E3F510568F081
S113075085C0CFC05F3FECF3983EDCF38695779578
S11307606795B795F7959F5FC9F7880F911D969583
S1130770879597F90895E1E0660F771F881FBB1FDF
S1130780621773078407BA0720F0621B730B840B8C
S1130790BA0BEE1F88F7E0950895E89409C097FB1B
S11307A03EF490958095709561957F4F8F4F9F4F44
S11307B09923A9F0F92F96E9BB279395F695879588
S11307C077956795B795F111F8CFFAF4BB0F11F44B
S11307D060FF1BC06F5F7F4F8F4F9F4F16C08823F2
S11307E011F096E911C0772321F09EE8872F762F28
S11307F005C0662371F096E8862F70E060E02AF069
S11308009A95660F771F881FDAF7880F9695879554
S113081097F90895990F0008550FAA0BE0E8FEEF29
S113082016161706E807F907C0F012161306E407B0
S1130830F50798F0621B730B840B950B39F40A26A9
S113084061F0232B242B252B21F408950A2609F487
S1130850A140A6958FEF811D811D089597F99F678B
S113086080E870E060E008959FEF80EC0895002434
S11308700A941616170618060906089500240A9401
S113088012161306140605060895092E0394000C87
S113089011F4882352F0BB0F40F4BF2B11F460FF16
S11308A004C06F5F7F4F8F4F9F4F089557FD90583F
S11308B0440F551F59F05F3F71F04795880F97FB20
S11308C0991F61F09F3F79F08795089512161306DA
S11308D01406551FF2CF4695F1DF08C01616170609
S11308E01806991FF1CF869571056105089408953E
S11308F0E894BB2766277727CB0197F90895FB0176
S11309009F01E8944230C4F04532B4F44A3029F4EB
S113091097FB1EF4909581959F4F642F77270E9433
S1130920B004805D8A330CF0895D8193CB0100971C
S1130930A1F716F45DE251931082C9010C94A0044E
S1130940DC01FC01672F71917723E1F7329704C032
S11309507C916D9370836291AE17BF07C8F30895BD
S1130960AA1BBB1B51E107C0AA1FBB1FA617B707D1
S113097010F0A61BB70B881F991F5A95A9F78095ED
S10F09809095BC01CD010895F894FFCFC0
S113098C48756D6964697479203D200054656D70F7
S113099C203D20004572726F72002E00250043200A
S10509AC000045
S9030000FC
